:020000040800F2
:10000000B0070020A901000827220008F91F0008F6
:1000100025220008A90400080D27000800000000A0
:100020000000000000000000000000003D23000868
:10003000A90A000800000000292200089D230008EA
:10004000C3010008C3010008C3010008C301000880
:10005000C3010008C3010008C3010008C301000870
:10006000C3010008C3010008C3010008C301000860
:10007000C3010008C3010008C3010008C301000850
:10008000C3010008C3010008C3010008000000000C
:10009000000000000000000000000000C301000894
:1000A000C3010008C3010008C3010008C301000820
:1000B000C3010008C3010008C3010008C301000810
:1000C000C3010008C3010008C3010008C301000800
:1000D000C3010008F5260008C30100080000000065
:1000E000C3010008C3010008C301000800000000AC
:1000F000000000000000000000000000C301000834
:1001000000000000C3010008C3010008C30100088B
:1001100000000000000000000000000000000000DF
:10012000F9090008C3010008C3010008C301000861
:10013000C3010008000000000000000000000000F3
:10014000000000000000000000000000C3010008E3
:10015000C3010008C3010008C3010008012700080B
:10016000C3010008C30100080000000000000000F7
:10017000000000000000000000000000000000007F
:1001800000000000C30100080000000000000000A3
:10019000C3010008DFF80CD000F098F800480047D1
:1001A000AD290008B00700200648804706480047F0
:1001B000FEE7FEE7FEE7FEE7FEE7FEE7FEE7FEE717
:1001C000FEE7FEE725240008950100082DE9F05F11
:1001D0000546002092469B468846064681464024B6
:1001E0001BE0284641464746224600F05FF853464A
:1001F0005A46C01A914110D311461846224600F0C3
:1002000046F82D1A67EB01084F46224601200021CF
:1002100000F03DF817EB00094E41201EA4F1010447
:10022000DFDC484631462A464346BDE8F09FD2B25D
:1002300001E000F8012B491EFBD270470022F6E7CF
:1002400010B513460A4604461946FFF7F0FF20464C
:1002500010BD421C10F8011B0029FBD1801A704709
:1002600010B5002200E0521C835C8C5CA34201D1DB
:10027000002BF8D1D8B2E1B2401A10BD034611F8F4
:10028000012B00F8012B002AF9D118467047202ACB
:1002900004DB203A00FA02F1002070479140C2F1DD
:1002A000200320FA03F3194390407047202A04DB0F
:1002B000203A21FA02F00021704721FA02F3D040DF
:1002C000C2F120029140084319467047064C074D81
:1002D00006E0E06840F0010394E807009847103416
:1002E000AC42F6D3FFF75AFF4C2D00086C2D0008E6
:1002F00010B50146806B026C12F0500F05D0026CF5
:10030000D20626D500F089FC10BD016C41F40071C5
:10031000016401688A6812F0405F17D1027EAAB9B1
:10032000CA6A12F4700F02D08A6852050ED44A6865
:1003300022F020024A60016C21F480710164016C9A
:10034000C90403D4016C41F00101016400F054FCC4
:1003500010BD806BC26CBDE810400846104710B558
:10036000806B40210164416C41F00401416400F064
:1003700054FC10BD10B5806B00F04EFC10BD0000A9
:10038000464910B54A6822F440324A604A684368D8
:100390001A434A6001684A6822F480724A60016820
:1003A0004A68036942EA03224A6001684A6822F007
:1003B00040724A6001684A6883681A434A6001686B
:1003C0008A6822F400628A6001688A68C3681A43F6
:1003D0008A60816A6FF07062D14201688A6822F097
:1003E00070628A6001688A680CD0836A1A438A60E6
:1003F00001688A6822F040528A6001688A68C36A8C
:100400001A4301E022F040528A6001688A6822F0B3
:1004100002028A6001688A68037E42EA43028A60B7
:1004200090F82010002901684A680FD042F4006259
:100430004A6001684A6822F460424A6001684A687A
:10044000174C436A04EB43331A4301E022F4006281
:100450004A600168CA6A22F47002CA620168CA6A04
:10046000838B104C04EB03531A43CA6201688A68F9
:1004700022F400728A6001688A6890F8303042EA9B
:1004800043228A6001688A6822F480628A60016877
:100490008A68406942EA8020886010BD00230140DC
:1004A00000E0FFFF0000F0FFFEE70000F0B58DB0B8
:1004B00006290FD00121154F491E02783878144CB7
:1004C000CDB204EB40013B2A06D04A55401C38709F
:1004D0000DB0F0BD0221EEE700264E5530466946CC
:1004E00004EB4002525D0A54401CC0B23228F7D1DE
:1004F0002A46012000F00EF83E70002004EB400177
:10050000401CC0B24E553228F8D1E1E7000000206F
:100510004C0000202DE9F04F0D46002190468DB093
:100520000E460F468C460B460A46FD4CDFF8F4A3F8
:100530008946C8B34FF0010BB8F1000F03D0B8F1F2
:10054000010F61D159E0DFF8DC8308F1020802E015
:1005500008F80100491C685C2E2801D00028F7D15A
:10056000DFF8BC83491CA8F1320803E008F8060054
:10057000491C761C685C2E2801D00028F6D1E94879
:10058000491C801E01F0FF0880F8018002E0E6555A
:10059000491C7F1C6E5C2E2E01D0002EF7D1A1EBE2
:1005A00008064670491C08E033E000BF04EB0C0667
:1005B000491C86F832000CF1010C685C2E2801D031
:1005C0000028F3D1491C04E0E618491C86F86400B1
:1005D0005B1C685C2E2801D00028F5D1491C04E082
:1005E000A318491C83F89600521C685C2E2801D081
:1005F0000028F5D18AF800B006E0C94829466438D9
:10060000FFF73CFE8AF801B085F800900DB0BDE818
:10061000F08F9AF8000000287ED0C2488AF8009037
:10062000C1A1801CFFF71CFE00B900BFBFA1BD48DF
:10063000801CFFF715FE00B900BFBEA1B948801CA1
:10064000FFF70EFE00B900BFBCA1B648801CFFF743
:1006500007FE00B900BFBBA1B1483238FFF700FE6A
:1006600058BB2078B9A13038C5B2AE48801CFFF71E
:10067000F7FD30B1AB48B6A1801CFFF7F1FD48B1E2
:100680001BE094F832002A463038C1B2012001F054
:1006900029FE12E0AFA007C88DE8070005F1300081
:1006A0008DF8060000212A46084601F01BFE303076
:1006B0008DF80800684601F005FE9948A8A1323877
:1006C000FFF7CEFD48BB2078A0A13038C5B29548D1
:1006D000801CFFF7C5FD30B192489DA1801CFFF73B
:1006E000BFFD48B11FE094F832002A463038C1B24D
:1006F000012001F083FC16E09AA02A46D0E9001000
:10070000CDE9001005F130008DF804000021084605
:1007100001F074FC303001E054E104E08DF8060093
:10072000684601F0CFFD7E4890A13238FFF798FD72
:1007300010BB7C4885A1801CFFF792FD30B1794841
:1007400083A1801CFFF78CFD38B115E0207830388C
:10075000C1B2012001F06AFD0EE085A1D1E90001DE
:10076000CDE900010021084601F060FD30308DF830
:100770000400684601F0A6FD69487FA13238FFF702
:100780006FFD80BB674871A1801CFFF769FD50BBFE
:1007900020783038C1B260783038C2B2A0783038B2
:1007A000C3B2E078303800F0FF0B5E48801E40781E
:1007B000012806D0022817D0032832D0042829D1D6
:1007C00045E094F8960094F832203038C3B294F89B
:1007D00064003038303AC0B2D2B2CDE90203CDE97C
:1007E0000012002311E015E094F8960094F86430AC
:1007F0003038303B94F83250C0B2DBB2303DEDB20D
:10080000CDE90230CDE900250B460022114601203A
:1008100001F07EFF42485AA13238FFF721FD50B364
:1008200033E094F8960094F8645094F832C030386D
:10083000ACF1300C0CF0FF0C303DCDE9003CC0B207
:10084000EDB21346CDE902500A460021DFE794F8E5
:1008500096003038C5B294F86400303800F0FF0CD0
:1008600094F83200CDE902C5303800F0FF08CDE938
:1008700000B80120CCE72B4835A1801CFFF7F0FC25
:1008800018B90021084601F05BFD25483EA1323829
:10089000FFF7E6FCD8B923482CA1801CFFF7E0FC49
:1008A000A8B9207801213038C5B2002001F0F4FF4A
:1008B0006DB90023CDF80090CDF80490CDF80890E4
:1008C0001A4619460120CDF80C9001F021FF14487A
:1008D00030A13238FFF7C4FCE8B912481BA1801CD4
:1008E000FFF7BEFCB8B96B4606EBC60101EB06117B
:1008F000002004EB4102115CD95501B17F1C401C62
:100900003228F8D1761C032EEED1184600F064F898
:1009100022A000F061F8024B0021323B48463FE044
:1009200014010020020000207264790042555454E2
:100930004F4E3100425554544F4E3200425554549C
:100940004F4E330072656C6179000000736574006E
:100950006765740072656C61792D002D003B0000A5
:100960006C6564006C65642D002D003B726762004D
:100970007267622D003B00007365676D656E7400E1
:1009800074656D700000000073686F7754656D705A
:100990000000000075617274000000003B00000060
:1009A000585460546218491C82F8320082F864007E
:1009B00082F896003229B2D1064A00215054491CCF
:1009C0000329FBD19AF8011000293FF41FAE8AF8E1
:1009D00001901BE60400002010B50446FFF739FC27
:1009E000214682B2BDE810404FF4FA63014801F09D
:1009F000A5BA000010030020014800F017BA00005B
:100A00005003002001681823CAB2103AB2FBF3F277
:100A1000054B6FF30901032A9B5CC36500D9091DCF
:100A200081650846704700002C2D000810B501466E
:100A300000208B698A6A4FF0C07453B1B3F5005F30
:100A400015D072B1012A0CD0022A0AD0032A09D18A
:100A500004E01AB1012A06D0022A03D1C96AC901E9
:100A600000D5012010BDC96AA142FAD010BD002AEC
:100A7000F7D0012AF2D0022AF3D0032AF3D010BD16
:100A800030B50468256825F4802525600468636016
:100A90008368402B036803D099600068C26030BD52
:100AA0009A600068C16030BD7047704778B5002417
:100AB000009490F83C20012A19D0012280F83C20B3
:100AC0000A6807230568092A13D9EE680A3A02EB77
:100AD000420293409E43EE600B788A680A3B03EB28
:100AE00043039A400368DD682A43DA6010E002207D
:100AF00078BD2E6902EB420293409E432E610B7833
:100B00008A6803EB43039A4003681D692A431A610C
:100B10004A681F23072A13D205686E6B521E02EB28
:100B2000820293409E436E630B790A885B1E92B2E9
:100B300003EB83039A4003685D6B2A435A6327E003
:100B400005680D2A12D22E6BD21F02EB820293404F
:100B50009E432E630B790A88DB1F92B203EB83035B
:100B60009A4003681D6B2A431A6311E0EE6A0D3A3E
:100B700002EB820293409E43EE620B790A880D3BA2
:100B800092B203EB83039A400368DD6A2A43DA6278
:100B9000164B0568144A9D4206D10D68122D03D1EB
:100BA000556845F48005556005689D4218D10B686D
:100BB000102B01D0112B13D1536843F40003536061
:100BC000096810290CD10A490A4A0968B1FBF2F1F7
:100BD00001EB8101490000E0491E00910029FBD191
:100BE00080F83C40002078BD0023014000200140F7
:100BF0004800002040420F0010B50021044801F0D9
:100C00004BFEBDE8104001220149024800F07CB8CB
:100C100038000020DC0100207047704770B50400E8
:100C20004FF0000503D0206C002610B107E0012032
:100C300070BD204600F01CF8666484F83C60206CAF
:100C4000C00610D4206C20F4885040F002002064CC
:100C50002046FFF795FB6664206C20F0020040F010
:100C60000100206400E0012584F83C60284670BD46
:100C700070B586B0064614216846FFF7DFFA1D49B5
:100C80003068884234D11C480025016841F48071E5
:100C90000160006800F480700590174814380168FE
:100CA00041F0010101600068694600F00100059013
:100CB000102000900320CDE90105104800F03AFA19
:100CC000104C0F48C4E900050015A560C4E90350A5
:100CD000800060618000A0618011C4E907052046A2
:100CE000656200F073F908B1FFF7DFFEB463A66335
:100CF00006B070BD002001404438024000000240B0
:100D00001064024050030020F8B50E46002104464E
:100D1000009190F83C00012807D0012084F83C00A5
:100D200020688368DB0702D011E00220F8BD8368E9
:100D300043F0010383602D482D4B0068B0FBF3F0B6
:100D400000EB400000E0401E00900028FBD120682E
:100D50008368DB0748D0236C40F20165AB4343F462
:100D6000807323644068400505D5206C20F4005052
:100D700040F480502064206CC00404D5606C20F0E6
:100D80000600606400E0616484F83C10A16B1A48BE
:100D9000184DC863A16B19480864A16B1848C86452
:100DA00021686FF0220008602068416841F080618E
:100DB00041602068816841F4807181602168134638
:100DC00032464C31A06B00F06BF96868C0062068B1
:100DD00002D00C49884207D1816811F0405F03D1ED
:100DE000816841F0804181600020F8BD480000200A
:100DF00040420F0000230140F10200087503000883
:100E00005F0300080020014090F83510022903D04C
:100E10008021416501207047052180F83510006868
:100E2000016821F001010160002070472DE9F843BD
:100E300004464FF00009CDF8009063484FF4165176
:100E4000A56D0068B0FBF1F72E6894F85C100820DF
:100E500000FA01F131420FD021680A6852070BD520
:100E60000A6822F004020A6094F85C108840A860C6
:100E7000606D40F00100606594F85C104FF001086F
:100E800008FA01F0304208D021684969090604D502
:100E9000A860606D40F00200606594F85C1004206A
:100EA0008840304208D021680968890704D5A860C5
:100EB000606D40F00400606594F85C10102088407C
:100EC000304218D021680968090714D5A860206845
:100ED0000168490304D50068000308D5A16C07E048
:100EE0000168C90503D4016821F008010160216C83
:100EF00009B12046884794F85C1020208840304291
:100F000031D021680968C9062DD5A86094F835004C
:100F100005282068016806D0490347D5006800030A
:100F20001DD4616C1CE021F016010160206841694C
:100F300021F080014161206C08B9A06C20B12068CB
:100F4000016821F00801016094F85C103F2088409E
:100F5000A86084F8349084F83580216D1FE0E16B3F
:100F600009B120468847606D00282BD0606DC0070E
:100F700014D0052084F835002068016821F00101B3
:100F800001600098401C0090B84203D820680068B7
:100F9000C007F6D184F8349084F83580E16C0029DC
:100FA00010D001B02046BDE8F04308470168C905EC
:100FB000D5D4016821F01001016084F8349084F8E0
:100FC0003580CCE7BDE8F883480000202DE9F041EA
:100FD000044600F083F906465CB1002584F83450DD
:100FE000022084F835002068016821F001010160C9
:100FF0000DE00120BDE8F08100F070F9801B0528AC
:1010000005D920206065032084F83500F2E72068C8
:101010000068C007F0D12268116820480140D4E977
:1010200001031843D4E90336334318436369184373
:10103000A3691843E3691843236A18430843616AA4
:10104000042903D1D4E90B13194308431060206825
:101050004069666A20F0070130460E4301270428E4
:101060000CD1A06A0643E06A40B12046FFF7DEFCDF
:1010700020B14020606584F83570BAE72068466189
:101080002046FFF7BFFC94F85C203F21914081602F
:10109000656584F835700020ACE700003F8010F0F3
:1010A0002DE9F0410446866D90F8340000250128B2
:1010B0000DD0012084F8340094F835700020012F01
:1010C00007D084F8340002252846BDE8F0810220CC
:1010D000FBE7022784F8357060652046FFF7D0FCF7
:1010E00094F85C103F208840B0602068016841F0AF
:1010F00016010160206C20B12068016841F00801F0
:1011000001602068016841F001010160DCE7000036
:1011100070B5044600F0E2F80546601C02D00448B1
:101120000078044400F0DAF8401BA042FAD370BD06
:101130003C0000202DE9F84F00224FF00108032564
:101140004FF00F0E0B6808FA02F42340A34271D14E
:101150004E68012E05D0022E03D0112E01D0122E82
:1011600015D18668570005FA07FC26EA0C06D1F867
:101170000CC00CFA07FC4CEA060CC0F808C0466824
:10118000A6430C79C4F30014944034434460C66809
:10119000570005FA07FC8C6826EA0C06BC4034436D
:1011A000C4604C68022C01D0122C13D1D40800EB7F
:1011B0008404A346D4F8209054074FEAD46A0EFA68
:1011C0000AF629EA06090E6906FA0AF646EA090647
:1011D000CBF8206004680E7924EA0C0406F00306BC
:1011E000BE40264306604C68E40056D52E4C266867
:1011F00046F480462660246822F0030604F4804406
:1012000000942A4C3444A446D4F808489607370F73
:101210000EFA07F6B443264EB04201D1002615E07F
:10122000244EB04201D1012610E0234EB04202D13B
:1012300002260BE031E0214EB04201D1032605E049
:101240001F4EB04201D1042600E00726BE402643CF
:10125000CCF808681B4E34684F689C43FF0300D5E8
:101260001C433460174E361D34684F689C43BF03DF
:1012700000D51C433460134E083634684F689C43D5
:10128000FF0200D51C4334600E4E0C3634684F68A4
:101290009C43BF0200D51C433460521C102AFFF44B
:1012A00051AFBDE8F88F00004438024000300140E3
:1012B000000002400004024000080240000C02400E
:1012C00000100240003C01400069084000D00120AD
:1012D00070470AB1816170470904FBE701488068E3
:1012E000704700003C00002070B5040025D094F841
:1012F0003D00002520B984F83C50204600F0B8F8A5
:10130000242084F83D002068016821F0010101607B
:101310002068016841F4004101602068016821F4FF
:101320000041016000F00CFA4D4A6168914201D819
:101330004C4900E04C49884201D2012070BD4B4924
:101340002368B0FBF1F15E6826F03F060E435E6055
:101350006368934206D94FF4967359434FF47A73F6
:10136000B1FBF3F12368491C1E6A26F03F063143A6
:1013700019626168914210D84900401EB0FBF1F239
:10138000521CC2F30B02042A01D2042022E0B0FB5B
:10139000F1F0401CC0F30B001CE0A268F2B301EBBB
:1013A000C10303EB0116431EB3FBF6F35B1C43F4CE
:1013B00080431B0549D092B301EBC10202EB01113E
:1013C000401EB0FBF1F0401CC0F30B0040F4804025
:1013D00040F400402168CA694CF6FF739A431043F9
:1013E000C861D4E9071001432068026822F0C002F6
:1013F00011430160D4E9030101432068826848F287
:10140000FF339A4311438160D4E905010843216801
:10141000CA6822F0FF021043C86001E00EE016E047
:101420002068016841F0010101602564202084F8F2
:101430003D00256384F83E50002070BD01EB41065D
:10144000431EB3FBF6F35B1CB3E70120C2E701EBDD
:101450004101401EB0FBF1F0401CC0F30B00B7E7A8
:10146000A086010080841E0000093D0040420F005C
:1014700010B586B0044614216846FEF7DFFE134916
:101480002068884220D11248016841F002010160C1
:101490000068694600F002000590C020009012200C
:1014A0000190012002900320039004200490094839
:1014B000FFF740FE06481030016841F4001101605A
:1014C000006800F40010059006B010BD0054004004
:1014D000303802400004024002488168027811441A
:1014E000816070473C0000200B4810B5016841F452
:1014F00000710160016841F480610160016841F49C
:1015000080710160032000F06FF8002000F006F801
:1015100000F024F8002010BD003C024070B50D4DD5
:1015200004464FF47A712878B1FBF0F00A49096853
:10153000B1FBF0F000F07AFB48B9102C07D2002282
:101540002146501E00F030F800206C6070BD012074
:1015500070BD00003C000020480000200A4808B58B
:10156000016841F480410160006800F4804000900F
:101570000548001F016841F080510160006800F0DB
:101580008050009008BD000044380240002809DB6C
:1015900000F01F02012191404009800000F1E0208D
:1015A000C0F8001170470000F0B40E4B1B680C46E9
:1015B000C3F30223C3F10705042D00D90425191D27
:1015C000072901D2002300E0DB1E012606FA05F1FF
:1015D000491E214099409E40761E16403143F0BC82
:1015E00001F0B4B80CED00E0064900F0070208680D
:1015F0004FF6FF03184040EA0220034A10430860F8
:10160000704700000CED00E00000FA052DE9F047FE
:101610000E46050065D0DFF81481D8F80000F7B257
:1016200000F00F00B04207D288F80070D8F8000030
:1016300000F00F00B04254D128683D4C810712D50C
:10164000400703D5206840F4E05020602878000768
:1016500003D5206840F4604020602068A96820F02D
:10166000F000084320602878C0072DD03049686812
:101670000839012812D0022813D0032811D0096894
:10168000890700292DDA216821F003010143216037
:10169000FFF724FE814641F2883A0EE0096889038B
:1016A000EFE709688901ECE7FFF718FEA0EB0901F5
:1016B000514502D90320BDE8F0872068696800F031
:1016C0000C00B0EB810FEFD1D8F80010404601F0CC
:1016D0000F01B14207D90770006800F00F00B04257
:1016E00001D00120E7E72878400705D52068E968A0
:1016F00020F4E050084320602878000706D52068D1
:10170000296920F4604040EAC100206000F038F808
:101710002168084AC1F30311515CC84006490860BA
:1017200006480068FFF7FAFE0020C4E7003C0240CC
:1017300008380240342D00084800002040000020F6
:101740000448054900680968044AC1F38221515CD4
:10175000C84070474800002008380240442D000867
:101760000448054900680968044AC1F34231515CE4
:10177000C84070474800002008380240442D000847
:10178000154810B5006810F00C02144813D0144925
:10179000042A0FD0082A0ED10F4C241F2268236878
:1017A00002F03F025B0207D52068C0F38810A0FB5F
:1017B000010106E0084610BD2168C1F38811A1FBB4
:1017C00000010023FEF702FD2168C1F30141491C1D
:1017D0004900B0FBF1F010BD083802400024F400CD
:1017E00080BA8C012DE9F84F040076D02078DFF81C
:1017F00038A3CE4DC00749D0DAF800105046C1F3E7
:101800008101012908D00068C0F3810002280AD1B3
:10181000281D0068400206D52868800336D5606818
:101820000028E2D032E06068B0F5803F10D0B0F51B
:10183000A02F286810D020F480302860286820F479
:10184000802028606068A0B1FFF748FD06460CE0E4
:10185000286840F48030F4E740F480202860F7E7FF
:10186000FFF73CFD801B642873D828688003F7D5F8
:101870000CE0FFF733FD064605E000BFFFF72EFD45
:10188000801B6428F0D828688003F7D42078DFF81C
:10189000A08280074FF000093ED5DAF800105046CC
:1018A00011F00C0F09D00068C0F3810002280BD1A1
:1018B0009D48001F0068400206D42868800715D59F
:1018C000E068012809D111E0E068B8B10120C8F84A
:1018D0000000FFF703FD064605E020E1FFF7FEFCF0
:1018E000801B0228C0D828688007F7D5286821699E
:1018F00020F0F80040EAC10028600DE0C8F8009030
:10190000FFF7ECFC064604E0FFF7E8FC801B02282A
:101910001FD828688007F7D42078000722D5824E88
:10192000844861696C3671B101210160FFF7D6FC12
:10193000074604E0FFF7D2FCC01B022809D8306834
:101940008007F7D50EE0C0F80090FFF7C7FC074608
:1019500005E082E0FFF7C2FCC01B02287DD830689A
:101960008007F7D42078400768D5DFF8BCB100279E
:101970000BF1380BDBF80000C0000BD4DBF80010D3
:1019800041F08051CBF80010DBF80000012700F097
:1019900080500090684E3068C00510D4306840F424
:1019A00080703060FFF79AFC009005E0FFF796FC2E
:1019B0000099401A022850D83068C005F6D55A4E12
:1019C000A068683601280FD00528306810D020F0B4
:1019D00001003060306820F004003060A068B8B1C9
:1019E000FFF77CFC00900FE0306840F00100F4E766
:1019F00040F004003060F7E7FFF770FC0099411AEF
:101A000041F28830814266D830688007F4D50EE014
:101A1000FFF764FC009007E0FFF760FC0099411AB3
:101A200041F28830814256D830688007F4D42FB113
:101A3000DBF8001021F08051CBF80010A069D0B382
:101A4000DAF800205146C2F38102022A4AD0022865
:101A5000484607D0C8F8600000E03CE0FFF73EFCD5
:101A600004463BE04746C8F86000FFF737FC0646EF
:101A700005E000BFFFF732FC801B02282BD8286846
:101A80008001F7D4D4E907010843A16A2B4A490829
:101A900002EB0141626A41EA8211084394F82C107A
:101AA00040EA01612048001F016001203866FFF70D
:101AB00015FC044605E034E0FFF710FC001B02288B
:101AC00009D828688001F7D52BE000BFFFF706FC96
:101AD000001B022802D90320BDE8F88F2868800186
:101AE000F4D41EE00128F7D00868E26900F4800110
:101AF000914214D1226A00F03F0191420FD147F682
:101B0000C071626A0140914209D1A26A00F4403179
:101B1000914204D1E16A00F07060884201D0012056
:101B2000DAE70020D8E70000083802400038024019
:101B300000004742800E4742007000400000FFFF57
:101B400070B5040005D00025A56294F8510010B1CD
:101B500006E0012070BD84F85050204600F030F8B7
:101B6000022084F851002068016821F040010160E2
:101B7000D4E901010843D4E9031211430843616920
:101B80000843218B01F400710843E1690843216A8D
:101B90000843A16A084321680860A069042101EA9A
:101BA0001040616A0843216848602068C16921F4D7
:101BB0000061C1616565012084F85100002070BD9D
:101BC00010B586B0044614216846FEF737FB144969
:101BD0002068884221D113480021026842F4004263
:101BE0000260006800F4004005900E48103802685A
:101BF00042F004020260006800F0040005904FF417
:101C0000E05000900220CDE901010320039006205E
:101C1000049069460448FFF78DFA06B010BD000035
:101C2000003C0040403802400008024010B5401E11
:101C3000B0F1807F01D3012010BD4FF0E02460613E
:101C40000F21601700F082FD0020A06107202061B5
:101C5000002010BD7047000070B50268044610688F
:101C6000D168536910F00F0F52D003F0010501F451
:101C700090762E435FD0C20705D0CA0503D5E26B2C
:101C800042F00102E263420705D5DA0703D0E26BB6
:101C900042F00202E263820705D5DA0703D0E26B65
:101CA00042F00402E263020707D501F020022A4352
:101CB00003D0E26B42F00802E263E26B002A33D009
:101CC000800604D5880602D5204600F0CFFB2068A8
:101CD0004069E16BC0F38010090700D428B32046A7
:101CE00000F0B6FB2068416949061AD5416921F028
:101CF00040014161606BA0B11B490165606BFFF75A
:101D000083F8002810D0606B016DBDE87040084773
:101D1000830610D58B060ED52046BDE8704000F036
:101D2000A5BB2046FFF796FF70BD2046FFF792FF48
:101D30000020E06370BD030606D50B0604D52046DF
:101D4000BDE8704000F072BC4006F3D54806F1D5FE
:101D5000D168204621F04001D160202184F839105B
:101D600000F049F970BD00004124000870B504007E
:101D700004D094F83900002510B106E0012070BDB0
:101D800084F83850204600F023F8242084F83900E5
:101D90002068C16821F40051C160204600F0B2FB08
:101DA0002068016921F4904101612068416921F0B6
:101DB0002A0141612068C16841F40051C160E563B6
:101DC000202084F8390084F83A00002070BD00001B
:101DD00070B586B0044614216846FEF72FFA2948EC
:101DE000274E256827491438022201230324B542CF
:101DF0001FD10D6845F010050D60096801F0100154
:101E00000591016841F0010101600068694600F038
:101E10000100059060028DE81D00072004901A481B
:101E2000FFF788F9002211462520FFF7BDFB25208A
:101E300021E0164EB54220D10D6845F020050D6019
:101E4000096801F020010591016841F00401016079
:101E50000068694600F004000590C0208DE81D0070
:101E6000082004900A48FFF765F900221146472030
:101E7000FFF79AFB4720FFF789FB06B070BD000013
:101E800000100140443802400000024000140140AC
:101E90000008024090F83A30202B22D1F9B1F2B17B
:101EA00090F83830012B1CD081628285C2850021D8
:101EB000C163222280F83A2080F838100168CA688D
:101EC00042F48072CA6001684A6942F001024A61C4
:101ED0000068C16841F02001C16000207047012006
:101EE000704702207047000010B5044600680F4993
:101EF000884208D106210E48FEF7D8FA01220C4983
:101F00000C48FFF7C7FF0C49206888420DD10848EC
:101F10000121401EFEF7CAFA054906480122491E62
:101F2000BDE810404038FFF7B5BF10BD00140140B8
:101F30003500002010030020001001402DE9F84377
:101F4000044690F839001F4616460D46202850D109
:101F5000B5B1AEB194F8380001284AD0012084F818
:101F600038004FF00008C4F83C80212084F8390084
:101F7000FFF7B4F9A6848146E68484F8388026E029
:101F80000120BDE8F883E08C401EE084A0684B4649
:101F9000B0F5805F4FF000024FF0800120460097BF
:101FA00003D000F074FBE8B90DE000F070FBC8B995
:101FB00028882168C0F308004860206908B16D1CBA
:101FC00005E0AD1C03E0216815F8010B4860E08CCA
:101FD0000028D8D14B46002240212046009700F02F
:101FE00056FB08B10320CCE7202084F839000020FC
:101FF000C7E70220C5E77047FEE7000070B5194B40
:1020000070B399541848194B194C092A0DD2DFE8BE
:1020100002F00C05080E1115191E22000A46802137
:1020200001E00A464021FFF754F9002070BD0A463E
:102030002021F8E70A464FF4004106E00A464FF433
:10204000804102E00A464FF400511846EBE70A4689
:102050004FF4007102E00A464FF480712046E2E737
:10206000985C70BD22000020000002400008024081
:10207000000402401FB50021124800910191029115
:102080000F4A0391026001244FF440320461C0E919
:102090000121047680F820100B4AC0E90A21C461AE
:1020A000C16080F830404461FEF7B8FD0420CDE9FE
:1020B00000040720029069460248FEF7F7FC1FBDA6
:1020C00000200140DC0100200100000F2DE9F04F4D
:1020D00087B014216846FEF7B1F840480024016833
:1020E00041F004010160016801F0040105910168FB
:1020F00041F080010160016801F0800105910168F3
:1021000041F001010160016801F0010105910168E0
:1021100041F002010160016801F0020105910168CE
:1021200041F0080101600068DFF8B48000F00800A9
:102130004EF20F150590002229464046FFF7C9F8D8
:10214000DFF8A09041F6EF16002231464846FFF72F
:10215000C0F8DFF894A04FF2367700223946504697
:10216000FFF7B7F8DFF884B0002204215846FFF7E4
:10217000B0F800950125CDE9015469464046039425
:10218000FEF7D8FF0096CDE901546946484603940E
:10219000FEF7D0FF3020CDE90004694640460294A6
:1021A000FEF7C8FFCDE90054694650460294FEF799
:1021B000C1FF0097CDE90154694650460394FEF7EC
:1021C000B9FF04200090CDE90154694658460394B4
:1021D000FEF7B0FF07B0BDE8F08F000030380240D6
:1021E000000802400000024000040240000C0240CF
:1021F0000B480A494FF4007201604FF4827141604C
:1022000000218160C1600161C0E90512C161016204
:10221000416281620A21C162FFF792BC003C00402A
:1022200078020020FEE770477047000070B5234A2F
:10223000A8B34FF40060224C4500C6101170082965
:102240000DD2DFE801F004060E101219202D002235
:102250000CE0002211E031462046FFF73AF800205A
:1022600070BD002210E000221BE001220146204642
:10227000FFF72FF800220CE0012201462046FFF76D
:1022800028F8002212E0012201462046FFF721F83B
:10229000012229462046FFF71CF80022DBE70BE06D
:1022A000012201462046FFF714F801222946204664
:1022B000FFF70FF80122CEE7107870BD080000206C
:1022C0000000024010B50446FDF7C3FF214682B26C
:1022D000BDE810404FF47A730148FFF72FBE0000AD
:1022E000D002002010B5124B00B312489954072AAF
:1022F0000DD2DFE802F00C04080E111518000A4692
:102300004FF4806101E00A460421FEF7E2FF00205D
:1023100010BD0A460221F8E70A4604210648F4E700
:102320000A461021F1E70A462021EEE7985C10BD2D
:102330001C00002000040240000C02407047000016
:1023400030B420B34FF47A7091FBF0F20A2092FB84
:10235000F0F300FB1323104A30335371642391FBD5
:10236000F3F393FBF0F400FB14333033937191FBE0
:10237000F0F393FBF0F400FB14333033D37191FB93
:10238000F0F300FB13103030107230BC704730BCDB
:102390000148FFF797BF00002A000020FFF79CB814
:1023A00030B593B030216846FDF748FF14210CA8E2
:1023B000FDF744FF19480025016841F08051016094
:1023C000006800F0805011901548016821F44041E8
:1023D00041F4004101600068022400F44040119083
:1023E0000120039010200490009406940820CDE969
:1023F00007505420CDE9090404200B906846FFF7EC
:10240000F1F90CA90F2081E83100E002CDE90F05B8
:1024100002210CA8FFF7FAF813B030BD4038024093
:10242000007000400548016841F4700101600349F3
:102430004FF00060803908607047000088ED00E0D0
:1024400010B5806B0021C185C184FFF703FC10BD6E
:102450000168CA6822F49072CA6001684A6922F071
:1024600001024A61202180F83A10704710B590F8B7
:102470003A10222901D0022010BD8168B1F5805F99
:1024800011D00169002901681FD0496801F07F035C
:10249000816A4A1C82620B70C18D491E0904090CB5
:1024A000C18518D02BE00269816A002A026852684F
:1024B00005D0D2B20A80816A491C8162ECE7C2F37E
:1024C00008020A80816A891CF7E74A68816A4B1C06
:1024D00083620A70E0E70168CA6822F02002CA60DD
:1024E0000168CA6822F48072CA6001684A6922F0F1
:1024F00001024A61202180F83A10FFF7F5FC002024
:1025000010BD00002DE9F041044600680169E26851
:1025100021F44051114301612169A068E269084337
:102520006169114308432168CA6849F20C639A4300
:102530000243CA6020684169A26921F440711143D5
:102540004161E069192764253226B0F5004F354A0C
:10255000354920684FF0000806D0884201D09042EB
:1025600036D1FFF7FDF835E0884201D0904202D124
:10257000FFF7F6F801E0FFF7E3F861684A18A0FBFF
:10258000070148EB0803FDF721FE0146B0FBF5F01B
:102590000201B1FBF5F06FF01803584301EB800026
:1025A00006EBC000B0FBF5F000F0F80002EB4002D3
:1025B000B1FBF5F0584301EB800006EBC000B0FB27
:1025C000F5F000F00700216810448860BDE8F08154
:1025D000FFF7B6F861688B0F8A00A0FB0701FDF7D3
:1025E000F5FD0146B0FBF5F06FF01802504301EB2A
:1025F000800006EB0010B0FBF5F000F0F002B1FB3C
:10260000F5F002EB0012B1FBF5F06FF01803584340
:1026100001EB800006EB0010B0FBF5F000F00F00BE
:10262000D1E70000001401400010014090F839107B
:10263000212901D0022070478168B1F5805F016ACD
:102640000BD04A1C0262026809785160C18C491E95
:102650000904090CC1840ED017E009880268C1F38F
:102660000801516001690029016A02D0491C016218
:10267000ECE7891CFBE70168CA6822F08002CA60A7
:102680000068C16841F04001C160002070472DE939
:10269000F041984617460E460446069D1DE0681C0C
:1026A0001BD02DB1FEF71AFEA0EB0800A84214D9EA
:1026B0002068C16821F4D071C1602068416921F0AF
:1026C00001014161202084F8390084F83A0000209B
:1026D00084F838000320BDE8F0812068006836EAFD
:1026E000000004D00020B842D9D00020F3E7012038
:1026F000F9E700000148FFF7AFBA0000D002002060
:102700000148FFF7A9BA000010030020FEE700000F
:10271000FEB50D4CDDE90A65DDE908C740B1617021
:10272000A270E37084F804C06771A671E571FEBD04
:102730006079E279A1798DE807002379E278A178C0
:10274000607800F0B9F9FEBD080000200907090E05
:10275000002804DB00F1E02080F80014704700F04E
:102760000F0000F1E02080F8141D704702E008C857
:10277000121F08C1002AFAD170477047002001E0FB
:1027800001C1121F002AFBD1704700002DE9FC4156
:102790000024009401212B480194FEF795FD0125AA
:1027A00010B18DF8005001E08DF80040264E202138
:1027B0003046FEF789FD10B18DF8015001E08DF82B
:1027C000014010213046FEF77FFD10B18DF8025018
:1027D00001E08DF802401D49002001AB1DF80060AA
:1027E0006A460F5CBE4201D01D5400E01C54401CE0
:1027F000C0B20328F2D10020135C0B54401CC0B2BD
:102800000328F9D19DF8000028B19DF8040010B10B
:102810000FA0FFF757FD9DF8010028B19DF80500B6
:1028200010B10EA0FFF74EFD9DF80200002806D063
:102830009DF80600002802D00BA0FFF743FDBDE87D
:10284000FC8100000004024000080240110000204A
:10285000425554544F4E313B0000000042555454F1
:102860004F4E323B00000000425554544F4E333B14
:102870000000000010B5012202210548FEF729FDE5
:102880000022BDE8104001210248FEF722BD0000F1
:10289000000002400008024030B43C499FED3A0A73
:1028A00000220B7A0068144613B108610C7203E031
:1028B0000B69184440080861C86842F210739842D6
:1028C0005DD3CC600869A0F60131B1F55D7F0BD214
:1028D000A0F67460404200EE900A9FED2D0AF8EEDB
:1028E000600A20EE800A2DE0A0F27F6140F2814470
:1028F000A1420AD8C0F5306000EE100ADFED250ACB
:10290000B8EE401AB3EE090A1AE0A0F23331B1F57D
:10291000537F01D2032203E040F23231884222D9B0
:10292000032A02D0042A0DD11DE0A0F27E604042AD
:1029300000EE100ADFED180AB8EE401A9FED170AF4
:1029400001EE200ADFED160A20EE200ABDEEC00AD5
:1029500010EE101A994202DD0A2091FBF0F130BC12
:102960000120FFF7EDBCA0F23230404200EE100A29
:10297000DFED0C0AB8EE401A9FED0B0AE0E7401CB1
:10298000C86030BC70470000000000000800002054
:1029900067D5E73C419AB13CB37BF23C000048422A
:1029A00000007A44F758FA3C000096421FB5FEF743
:1029B0009BFDFFF7F5FCFFF789FB374835494FF4DE
:1029C000E13500240160C0E901540C26C460C0E96F
:1029D00004468461C461FFF7C9F93048016841F4D5
:1029E000800101600068002200F480000090114620
:1029F0003820FEF7D9FD3820FEF7C8FDFFF73AFB77
:102A000025482749AC3801602649C0E901144FF434
:102A10008041C0E9034144618461C4610462FEF7FE
:102A200063FCFFF7E5FB1C481F4940300160C0E92B
:102A30000154C460C0E904468461C461FFF796F99B
:102A4000154801221949F438FEF75EF917490122A9
:102A5000091F1148FFF71EFA14490F480122C91E29
:102A60004030FFF717FA12A0FFF72CFCFFF702FF28
:102A700000230094019402941A46194618460394C0
:102A8000FFF746FE00220BA11046FDF743FDFFF7BE
:102A90007DFEEDE700100140D002002030380240FA
:102AA00000540040A08601000014014038000020BE
:102AB0007264793B000000002DE9FF410122874C40
:102AC000570339462046FEF704FC9DF80000844D6C
:102AD000C00704D0012202212846FEF7FAFB9DF828
:102AE0000000800704D5012208212846FEF7F1FBEB
:102AF0009DF800007B4E400704D501221146304668
:102B0000FEF7E7FB9DF80000000704D50122042131
:102B10002846FEF7DEFB9DF82800042804D1012298
:102B200004213046FEF7D5FB0120FEF7F1FA002222
:102B300039462046FEF7CDFB00F0D6F80122970378
:102B400039462046FEF7C5FB9DF80400C00704D0B7
:102B5000012202212846FEF7BCFB9DF804008007F5
:102B600004D5012208212846FEF7B3FB9DF8040096
:102B7000400704D5012211463046FEF7AAFB9DF816
:102B80000400000704D5012204212846FEF7A1FB1A
:102B90009DF82800032804D1012204213046FEF7C5
:102BA00098FB0120FEF7B4FA002239462046FEF7D2
:102BB00090FB00F099F80122D70339462046FEF732
:102BC00088FB9DF80800C00704D001220221284696
:102BD000FEF77FFB9DF80800800704D5012208213D
:102BE0002846FEF776FB9DF80800400704D5012231
:102BF00011463046FEF76DFB9DF80800000704D52E
:102C0000012204212846FEF764FB9DF828000228D3
:102C100004D1012204213046FEF75BFB0120FEF7C0
:102C200077FA002239462046FEF753FB00F05CF8A5
:102C30000122170239462846FEF74BFB9DF80C008F
:102C4000C00704D0012202212846FEF742FB9DF86E
:102C50000C00800704D5012208212846FEF739FB25
:102C60009DF80C00400704D5012211463046FEF7BE
:102C700030FB9DF80C00000704D5012204212846F2
:102C8000FEF727FB9DF82800012804D1012204212A
:102C90003046FEF71EFB0120FEF73AFA00223946C5
:102CA0002846FEF716FB00F01FF89DF82C0008B12F
:102CB000012200E0002208213046FEF70AFB9DF8C1
:102CC00030004FF4805108B1012200E0002204B02E
:102CD0002046BDE8F041FEF7FCBA000000040240C7
:102CE000000802400000024070B50E4C0022022194
:102CF0002046FEF7EEFA002208212046FEF7E9FA08
:102D0000094D002201212846FEF7E3FA00220421A2
:102D10002046FEF7DEFA2846BDE870400022042176
:102D2000FEF7D7BA00080240000002400006101665
:102D3000000610160000000000000000010203045D
:102D40000607080900000000010203046C2D0008BA
:102D5000000000204C0000006C270008B82D00087F
:102D60004C000020640700007C27000800000000E1
:102D70000000000000000000000000000100000052
:102D80000000000000000000000000000000000043
:102D900000000000000074656D702E000000003B14
:102DA0000000000000000000010000001000000012
:082DB000000000000024F40003
:040000050800019559
:00000001FF
